{
  "_format": "hh-sol-artifact-1",
  "contractName": "Registration",
  "sourceName": "contracts/Registration.sol",
  "abi": [
    {
      "anonymous": false,
      "inputs": [
        {
          "indexed": true,
          "internalType": "address",
          "name": "agroTrader",
          "type": "address"
        },
        {
          "indexed": false,
          "internalType": "string",
          "name": "businessName",
          "type": "string"
        }
      ],
      "name": "AgroTraderRegistered",
      "type": "event"
    },
    {
      "anonymous": false,
      "inputs": [
        {
          "indexed": true,
          "internalType": "address",
          "name": "farmer",
          "type": "address"
        },
        {
          "indexed": false,
          "internalType": "string",
          "name": "name",
          "type": "string"
        }
      ],
      "name": "FarmerRegistered",
      "type": "event"
    },
    {
      "inputs": [
        {
          "internalType": "address",
          "name": "_wallet",
          "type": "address"
        }
      ],
      "name": "getAgroTraderDetails",
      "outputs": [
        {
          "components": [
            {
              "internalType": "string",
              "name": "businessName",
              "type": "string"
            },
            {
              "internalType": "string",
              "name": "email",
              "type": "string"
            },
            {
              "internalType": "string",
              "name": "phoneNumber",
              "type": "string"
            },
            {
              "internalType": "string",
              "name": "panVatNumber",
              "type": "string"
            },
            {
              "internalType": "string",
              "name": "warehouseLocation",
              "type": "string"
            }
          ],
          "internalType": "struct Registration.AgroTrader",
          "name": "",
          "type": "tuple"
        }
      ],
      "stateMutability": "view",
      "type": "function"
    },
    {
      "inputs": [
        {
          "internalType": "address",
          "name": "_wallet",
          "type": "address"
        }
      ],
      "name": "getFarmerDetails",
      "outputs": [
        {
          "components": [
            {
              "internalType": "string",
              "name": "name",
              "type": "string"
            },
            {
              "internalType": "string",
              "name": "addressDetails",
              "type": "string"
            },
            {
              "internalType": "string",
              "name": "email",
              "type": "string"
            },
            {
              "internalType": "string",
              "name": "phoneNumber",
              "type": "string"
            },
            {
              "internalType": "string",
              "name": "citizenshipId",
              "type": "string"
            },
            {
              "internalType": "string",
              "name": "photoLink",
              "type": "string"
            },
            {
              "internalType": "string",
              "name": "location",
              "type": "string"
            }
          ],
          "internalType": "struct Registration.Farmer",
          "name": "",
          "type": "tuple"
        }
      ],
      "stateMutability": "view",
      "type": "function"
    },
    {
      "inputs": [
        {
          "internalType": "address",
          "name": "_wallet",
          "type": "address"
        }
      ],
      "name": "getRole",
      "outputs": [
        {
          "internalType": "string",
          "name": "",
          "type": "string"
        }
      ],
      "stateMutability": "view",
      "type": "function"
    },
    {
      "inputs": [
        {
          "internalType": "string",
          "name": "_businessName",
          "type": "string"
        },
        {
          "internalType": "string",
          "name": "_email",
          "type": "string"
        },
        {
          "internalType": "string",
          "name": "_phoneNumber",
          "type": "string"
        },
        {
          "internalType": "string",
          "name": "_panVatNumber",
          "type": "string"
        },
        {
          "internalType": "string",
          "name": "_warehouseLocation",
          "type": "string"
        }
      ],
      "name": "registerAgroTrader",
      "outputs": [],
      "stateMutability": "nonpayable",
      "type": "function"
    },
    {
      "inputs": [
        {
          "internalType": "string",
          "name": "_name",
          "type": "string"
        },
        {
          "internalType": "string",
          "name": "_addressDetails",
          "type": "string"
        },
        {
          "internalType": "string",
          "name": "_email",
          "type": "string"
        },
        {
          "internalType": "string",
          "name": "_phoneNumber",
          "type": "string"
        },
        {
          "internalType": "string",
          "name": "_citizenshipId",
          "type": "string"
        },
        {
          "internalType": "string",
          "name": "_photoLink",
          "type": "string"
        },
        {
          "internalType": "string",
          "name": "_location",
          "type": "string"
        }
      ],
      "name": "registerFarmer",
      "outputs": [],
      "stateMutability": "nonpayable",
      "type": "function"
    }
  ],
  "bytecode": "0x6080604052348015600f57600080fd5b50611c568061001f6000396000f3fe608060405234801561001057600080fd5b50600436106100575760003560e01c8063442767331461005c5780639db2261e1461008c578063c1b13e76146100bc578063d335ccfa146100d8578063f25d08b314610108575b600080fd5b6100766004803603810190610071919061115e565b610124565b604051610083919061121b565b60405180910390f35b6100a660048036038101906100a1919061115e565b6102cb565b6040516100b39190611319565b60405180910390f35b6100d660048036038101906100d19190611470565b6106af565b005b6100f260048036038101906100ed919061115e565b610930565b6040516100ff919061169c565b60405180910390f35b610122600480360381019061011d91906116be565b610e39565b005b60606001600281111561013a576101396117c5565b5b6000808473ffffffffffffffffffffffffffffffffffffffff1673ffffffffffffffffffffffffffffffffffffffff16815260200190815260200160002060009054906101000a900460ff166002811115610198576101976117c5565b5b036101da576040518060400160405280600681526020017f4661726d6572000000000000000000000000000000000000000000000000000081525090506102c6565b6002808111156101ed576101ec6117c5565b5b6000808473ffffffffffffffffffffffffffffffffffffffff1673ffffffffffffffffffffffffffffffffffffffff16815260200190815260200160002060009054906101000a900460ff16600281111561024b5761024a6117c5565b5b0361028d576040518060400160405280600a81526020017f4167726f5472616465720000000000000000000000000000000000000000000081525090506102c6565b6040518060400160405280600481526020017f4e6f6e650000000000000000000000000000000000000000000000000000000081525090505b919050565b6102d3611080565b6002808111156102e6576102e56117c5565b5b6000808473ffffffffffffffffffffffffffffffffffffffff1673ffffffffffffffffffffffffffffffffffffffff16815260200190815260200160002060009054906101000a900460ff166002811115610344576103436117c5565b5b14610384576040517f08c379a000000000000000000000000000000000000000000000000000000000815260040161037b90611840565b60405180910390fd5b600260008373ffffffffffffffffffffffffffffffffffffffff1673ffffffffffffffffffffffffffffffffffffffff1681526020019081526020016000206040518060a00160405290816000820180546103de9061188f565b80601f016020809104026020016040519081016040528092919081815260200182805461040a9061188f565b80156104575780601f1061042c57610100808354040283529160200191610457565b820191906000526020600020905b81548152906001019060200180831161043a57829003601f168201915b505050505081526020016001820180546104709061188f565b80601f016020809104026020016040519081016040528092919081815260200182805461049c9061188f565b80156104e95780601f106104be576101008083540402835291602001916104e9565b820191906000526020600020905b8154815290600101906020018083116104cc57829003601f168201915b505050505081526020016002820180546105029061188f565b80601f016020809104026020016040519081016040528092919081815260200182805461052e9061188f565b801561057b5780601f106105505761010080835404028352916020019161057b565b820191906000526020600020905b81548152906001019060200180831161055e57829003601f168201915b505050505081526020016003820180546105949061188f565b80601f01602080910402602001604051908101604052809291908181526020018280546105c09061188f565b801561060d5780601f106105e25761010080835404028352916020019161060d565b820191906000526020600020905b8154815290600101906020018083116105f057829003601f168201915b505050505081526020016004820180546106269061188f565b80601f01602080910402602001604051908101604052809291908181526020018280546106529061188f565b801561069f5780601f106106745761010080835404028352916020019161069f565b820191906000526020600020905b81548152906001019060200180831161068257829003601f168201915b5050505050815250509050919050565b33600060028111156106c4576106c36117c5565b5b6000808373ffffffffffffffffffffffffffffffffffffffff1673ffffffffffffffffffffffffffffffffffffffff16815260200190815260200160002060009054906101000a900460ff166002811115610722576107216117c5565b5b14610762576040517f08c379a00000000000000000000000000000000000000000000000000000000081526004016107599061190c565b60405180910390fd5b6040518060e0016040528089815260200188815260200187815260200186815260200185815260200184815260200183815250600160003373ffffffffffffffffffffffffffffffffffffffff1673ffffffffffffffffffffffffffffffffffffffff16815260200190815260200160002060008201518160000190816107e99190611ae2565b5060208201518160010190816107ff9190611ae2565b5060408201518160020190816108159190611ae2565b50606082015181600301908161082b9190611ae2565b5060808201518160040190816108419190611ae2565b5060a08201518160050190816108579190611ae2565b5060c082015181600601908161086d9190611ae2565b5090505060016000803373ffffffffffffffffffffffffffffffffffffffff1673ffffffffffffffffffffffffffffffffffffffff16815260200190815260200160002060006101000a81548160ff021916908360028111156108d3576108d26117c5565b5b02179055503373ffffffffffffffffffffffffffffffffffffffff167f42558426a946ab6e527d7f548e7bd3e34c2a7ddde555007464cdfbb5f58665f88960405161091e919061121b565b60405180910390a25050505050505050565b6109386110af565b6001600281111561094c5761094b6117c5565b5b6000808473ffffffffffffffffffffffffffffffffffffffff1673ffffffffffffffffffffffffffffffffffffffff16815260200190815260200160002060009054906101000a900460ff1660028111156109aa576109a96117c5565b5b146109ea576040517f08c379a00000000000000000000000000000000000000000000000000000000081526004016109e190611c00565b60405180910390fd5b600160008373ffffffffffffffffffffffffffffffffffffffff1673ffffffffffffffffffffffffffffffffffffffff1681526020019081526020016000206040518060e0016040529081600082018054610a449061188f565b80601f0160208091040260200160405190810160405280929190818152602001828054610a709061188f565b8015610abd5780601f10610a9257610100808354040283529160200191610abd565b820191906000526020600020905b815481529060010190602001808311610aa057829003601f168201915b50505050508152602001600182018054610ad69061188f565b80601f0160208091040260200160405190810160405280929190818152602001828054610b029061188f565b8015610b4f5780601f10610b2457610100808354040283529160200191610b4f565b820191906000526020600020905b815481529060010190602001808311610b3257829003601f168201915b50505050508152602001600282018054610b689061188f565b80601f0160208091040260200160405190810160405280929190818152602001828054610b949061188f565b8015610be15780601f10610bb657610100808354040283529160200191610be1565b820191906000526020600020905b815481529060010190602001808311610bc457829003601f168201915b50505050508152602001600382018054610bfa9061188f565b80601f0160208091040260200160405190810160405280929190818152602001828054610c269061188f565b8015610c735780601f10610c4857610100808354040283529160200191610c73565b820191906000526020600020905b815481529060010190602001808311610c5657829003601f168201915b50505050508152602001600482018054610c8c9061188f565b80601f0160208091040260200160405190810160405280929190818152602001828054610cb89061188f565b8015610d055780601f10610cda57610100808354040283529160200191610d05565b820191906000526020600020905b815481529060010190602001808311610ce857829003601f168201915b50505050508152602001600582018054610d1e9061188f565b80601f0160208091040260200160405190810160405280929190818152602001828054610d4a9061188f565b8015610d975780601f10610d6c57610100808354040283529160200191610d97565b820191906000526020600020905b815481529060010190602001808311610d7a57829003601f168201915b50505050508152602001600682018054610db09061188f565b80601f0160208091040260200160405190810160405280929190818152602001828054610ddc9061188f565b8015610e295780601f10610dfe57610100808354040283529160200191610e29565b820191906000526020600020905b815481529060010190602001808311610e0c57829003601f168201915b5050505050815250509050919050565b3360006002811115610e4e57610e4d6117c5565b5b6000808373ffffffffffffffffffffffffffffffffffffffff1673ffffffffffffffffffffffffffffffffffffffff16815260200190815260200160002060009054906101000a900460ff166002811115610eac57610eab6117c5565b5b14610eec576040517f08c379a0000000000000000000000000000000000000000000000000000000008152600401610ee39061190c565b60405180910390fd5b6040518060a0016040528087815260200186815260200185815260200184815260200183815250600260003373ffffffffffffffffffffffffffffffffffffffff1673ffffffffffffffffffffffffffffffffffffffff1681526020019081526020016000206000820151816000019081610f679190611ae2565b506020820151816001019081610f7d9190611ae2565b506040820151816002019081610f939190611ae2565b506060820151816003019081610fa99190611ae2565b506080820151816004019081610fbf9190611ae2565b5090505060026000803373ffffffffffffffffffffffffffffffffffffffff1673ffffffffffffffffffffffffffffffffffffffff16815260200190815260200160002060006101000a81548160ff02191690836002811115611025576110246117c5565b5b02179055503373ffffffffffffffffffffffffffffffffffffffff167f8f664cba3a6328ed241614642e9f2d549f683d19e0fdf37c4423025be2f539e587604051611070919061121b565b60405180910390a2505050505050565b6040518060a0016040528060608152602001606081526020016060815260200160608152602001606081525090565b6040518060e00160405280606081526020016060815260200160608152602001606081526020016060815260200160608152602001606081525090565b6000604051905090565b600080fd5b600080fd5b600073ffffffffffffffffffffffffffffffffffffffff82169050919050565b600061112b82611100565b9050919050565b61113b81611120565b811461114657600080fd5b50565b60008135905061115881611132565b92915050565b600060208284031215611174576111736110f6565b5b600061118284828501611149565b91505092915050565b600081519050919050565b600082825260208201905092915050565b60005b838110156111c55780820151818401526020810190506111aa565b60008484015250505050565b6000601f19601f8301169050919050565b60006111ed8261118b565b6111f78185611196565b93506112078185602086016111a7565b611210816111d1565b840191505092915050565b6000602082019050818103600083015261123581846111e2565b905092915050565b600082825260208201905092915050565b60006112598261118b565b611263818561123d565b93506112738185602086016111a7565b61127c816111d1565b840191505092915050565b600060a08301600083015184820360008601526112a4828261124e565b915050602083015184820360208601526112be828261124e565b915050604083015184820360408601526112d8828261124e565b915050606083015184820360608601526112f2828261124e565b9150506080830151848203608086015261130c828261124e565b9150508091505092915050565b600060208201905081810360008301526113338184611287565b905092915050565b600080fd5b600080fd5b7f4e487b7100000000000000000000000000000000000000000000000000000000600052604160045260246000fd5b61137d826111d1565b810181811067ffffffffffffffff8211171561139c5761139b611345565b5b80604052505050565b60006113af6110ec565b90506113bb8282611374565b919050565b600067ffffffffffffffff8211156113db576113da611345565b5b6113e4826111d1565b9050602081019050919050565b82818337600083830152505050565b600061141361140e846113c0565b6113a5565b90508281526020810184848401111561142f5761142e611340565b5b61143a8482856113f1565b509392505050565b600082601f8301126114575761145661133b565b5b8135611467848260208601611400565b91505092915050565b600080600080600080600060e0888a03121561148f5761148e6110f6565b5b600088013567ffffffffffffffff8111156114ad576114ac6110fb565b5b6114b98a828b01611442565b975050602088013567ffffffffffffffff8111156114da576114d96110fb565b5b6114e68a828b01611442565b965050604088013567ffffffffffffffff811115611507576115066110fb565b5b6115138a828b01611442565b955050606088013567ffffffffffffffff811115611534576115336110fb565b5b6115408a828b01611442565b945050608088013567ffffffffffffffff811115611561576115606110fb565b5b61156d8a828b01611442565b93505060a088013567ffffffffffffffff81111561158e5761158d6110fb565b5b61159a8a828b01611442565b92505060c088013567ffffffffffffffff8111156115bb576115ba6110fb565b5b6115c78a828b01611442565b91505092959891949750929550565b600060e08301600083015184820360008601526115f3828261124e565b9150506020830151848203602086015261160d828261124e565b91505060408301518482036040860152611627828261124e565b91505060608301518482036060860152611641828261124e565b9150506080830151848203608086015261165b828261124e565b91505060a083015184820360a0860152611675828261124e565b91505060c083015184820360c086015261168f828261124e565b9150508091505092915050565b600060208201905081810360008301526116b681846115d6565b905092915050565b600080600080600060a086880312156116da576116d96110f6565b5b600086013567ffffffffffffffff8111156116f8576116f76110fb565b5b61170488828901611442565b955050602086013567ffffffffffffffff811115611725576117246110fb565b5b61173188828901611442565b945050604086013567ffffffffffffffff811115611752576117516110fb565b5b61175e88828901611442565b935050606086013567ffffffffffffffff81111561177f5761177e6110fb565b5b61178b88828901611442565b925050608086013567ffffffffffffffff8111156117ac576117ab6110fb565b5b6117b888828901611442565b9150509295509295909350565b7f4e487b7100000000000000000000000000000000000000000000000000000000600052602160045260246000fd5b7f4e6f7420616e206167726f207472616465720000000000000000000000000000600082015250565b600061182a601283611196565b9150611835826117f4565b602082019050919050565b600060208201905081810360008301526118598161181d565b9050919050565b7f4e487b7100000000000000000000000000000000000000000000000000000000600052602260045260246000fd5b600060028204905060018216806118a757607f821691505b6020821081036118ba576118b9611860565b5b50919050565b7f4164647265737320616c72656164792072656769737465726564000000000000600082015250565b60006118f6601a83611196565b9150611901826118c0565b602082019050919050565b60006020820190508181036000830152611925816118e9565b9050919050565b60008190508160005260206000209050919050565b60006020601f8301049050919050565b600082821b905092915050565b60006008830261198e7fffffffffffffffffffffffffffffffffffffffffffffffffffffffffffffffff82611951565b6119988683611951565b95508019841693508086168417925050509392505050565b6000819050919050565b6000819050919050565b60006119df6119da6119d5846119b0565b6119ba565b6119b0565b9050919050565b6000819050919050565b6119f9836119c4565b611a0d611a05826119e6565b84845461195e565b825550505050565b600090565b611a22611a15565b611a2d8184846119f0565b505050565b5b81811015611a5157611a46600082611a1a565b600181019050611a33565b5050565b601f821115611a9657611a678161192c565b611a7084611941565b81016020851015611a7f578190505b611a93611a8b85611941565b830182611a32565b50505b505050565b600082821c905092915050565b6000611ab960001984600802611a9b565b1980831691505092915050565b6000611ad28383611aa8565b9150826002028217905092915050565b611aeb8261118b565b67ffffffffffffffff811115611b0457611b03611345565b5b611b0e825461188f565b611b19828285611a55565b600060209050601f831160018114611b4c5760008415611b3a578287015190505b611b448582611ac6565b865550611bac565b601f198416611b5a8661192c565b60005b82811015611b8257848901518255600182019150602085019450602081019050611b5d565b86831015611b9f5784890151611b9b601f891682611aa8565b8355505b6001600288020188555050505b505050505050565b7f4e6f742061206661726d65720000000000000000000000000000000000000000600082015250565b6000611bea600c83611196565b9150611bf582611bb4565b602082019050919050565b60006020820190508181036000830152611c1981611bdd565b905091905056fea264697066735822122027daf583dd7a6fc14913029c7a06e70d07565c050b6ff98b48b1fc64ed0f635b64736f6c634300081c0033",
  "linkReferences": {},
  "deployedLinkReferences": {}
}